:020000040800F2
:1000000030080020A9010008492000086B180008EA
:100010004520000845140008512800080000000091
:100020000000000000000000000000005D25000846
:10003000491400080000000019250008492600089E
:10004000C3010008C3010008C3010008C301000880
:10005000C3010008C3010008B514000829150008F1
:10006000C3010008C3010008C3010008C301000860
:10007000C3010008C3010008C3010008C301000850
:10008000C3010008C3010008C3010008C301000840
:10009000C3010008C3010008C3010008C301000830
:1000A000C3010008C3010008C3010008C301000820
:1000B000AD260008C3010008C3010008C301000801
:1000C000C3010008C3010008C3010008C301000800
:1000D000C3010008C3010008C3010008C3010008F0
:1000E000FD140008C3010008C301000800F002F875
:1000F00000F04BF80AA090E8000C82448344AAF177
:100100000107DA4501D100F040F8AFF2090EBAE874
:100110000F0013F0010F18BFFB1A43F0010318473B
:100120004839000068390000103A24BF78C878C107
:10013000FAD8520724BF30C830C144BF04680C60ED
:10014000704700000023002400250026103A28BF35
:1001500078C1FBD8520728BF30C148BF0B60704739
:10016000662903F03D81002070471FB59DE803001C
:1001700000F02AF900F0BEFB04000020002102F08C
:1001800033FFE0601FBD10B510BD00F0D1FC11467B
:10019000FFF7EBFF02F0FAFE00F0EFFC03B4FFF70D
:1001A000F2FF03BC00F060FD0948804709480047A2
:1001B000FEE7FEE7FEE7FEE7FEE7FEE7FEE7FEE717
:1001C000FEE7FEE704480549054A064B7047000074
:1001D0004D260008ED000008300200203008002005
:1001E000300400203004002070B5064600F0D0F83E
:1001F000056806F10B0020F00704B4429CBF002004
:1002000070BD2B466A68BAB11068A04210D304F1E1
:10021000080188423CBF5068586007D351681019E4
:1002200041601168091B016058601460101D70BDA9
:1002300013465268002AE7D12146284600F0B0F85C
:100240000028DED170BD00000FB41CB50C0007AA59
:10025000009001D02044401E074B7B44694601902A
:10026000069800F022FB002C03D06946002000F025
:100270002FFB1CBC5DF814FB7D0600002DE9F04748
:100280004FF0000A89460446C0F820A02046E168E5
:100290008847002876D0252806D0D4E90121904748
:1002A000206A401C2062F1E7E1682046002588476B
:1002B000C4F81CA006460027C4F818A02A2E09D0AE
:1002C000304602F0DBFA38B304EB8708303EC8F85A
:1002D000186019E059F8041B204604EB870291616D
:1002E000E1688847012F064618D1E069002820DA26
:1002F00025F020051DE0D8F8180000EB800006EB83
:1003000040003038C8F818002046E16888470646A3
:1003100002F0B4FA0028EED1012F0AD02E2E08D117
:100320002046E16888477F1C0646022F45F02005DD
:10033000C4DBA069002803DA404245F00105A06152
:10034000E80701D025F01005B6B1A6F14100192843
:1003500002D8203645F400654A46314620462560DD
:100360004D46FFF7FDFE58B1012806D0ED1D25F0E2
:10037000070000F1080989E704E005F1040985E7B1
:1003800030468AE7206ABDE8F087704770477047BB
:1003900000487047D8010020704770477047704789
:1003A00038B504460A4600206946AFF300800028AD
:1003B00008BF38BD02460099204600F09FFA012090
:1003C00038BD012000F0ACBBF8B5AFF300800546A6
:1003D00000200C46102000BF0646A819A0420DD9E7
:1003E000324669460020AFF30080070008BF00F0E6
:1003F00097FB0098A04218BF0546C419FFF7C8FF35
:1004000005600746F01D20F007004619284600F059
:100410000AF8B44208BFF8BDA21B31463868BDE8EF
:10042000F84000F06BBA00210160C0E9011070478C
:100430001020704770B50446051FFFF7A9FF00683C
:10044000002C14BF446870BD002C18BFAC423CBFE8
:1004500020466468F8D301680A18AA4218BF4560AC
:1004600003D12A6805461144016028684119A14258
:100470001CBF6C6070BD61686960216808442860B9
:1004800070BD70472DE9FF4F0C461E464FF0FF37F9
:100490008BB0D2E90001DDF860800A908A46C1F392
:1004A0000A5505B93D46002108464FF00000BAF153
:1004B000000F00F4400005DA00EB80004FF440012B
:1004C00001EA50004FEA9059B9F1010F00DDB94639
:1004D0000A9850EA4A000ED044F61050A5F2FF35B3
:1004E00045432F14B8F1000F1ED07542291E1EDDA2
:1004F000C9F100021CE0B8F1010F4FF0000001D07B
:10050000302103E0F24305E02154401CB042FBDB04
:1005100030460022002121540B99C1F80880C1E91E
:1005200000200FB0BDE8F08FBD1B6D1CDEE74A4612
:1005300000DA694206A800F081FA06AB93E80700EA
:1005400003AB83E8070050460A9900F0B3FB8DE83F
:100550000700A0F500501F3800900398002D0ADD19
:1005600042F21F014A460844002303A9039068464B
:1005700000F01CFE09E0A0F500504A461F38002399
:1005800003A90390684600F026FE8DE807000004EA
:10059000000C03D04FF0FF30410800E01046B8F1E6
:1005A000000F03D00022009215461EE0751E05D4F0
:1005B00000F0BEF9303262556D1EF9D5B346012206
:1005C000084302D000227F1C04E02078302801D1AB
:1005D00000227F1E002A099784D01DE0112D07DA22
:1005E00000F0A6F9303262556D1C50EA0102F5D1D7
:1005F000084302D00098C8B10EE00021681E05E053
:10060000235C625C63542254401E491C8142F7DB28
:10061000AB46A81B401E0990002004F80B000B9865
:10062000099AC0F80880C0E9002B7AE711264FF03C
:10063000000857E72DE9F04F88460446D21D22F006
:10064000070191B0D1E90001CDE90A0102F002F9F8
:1006500002460B98C00F01D02D2007E020688107CB
:1006600001D52B2002E0202101EAC000032A0990D5
:1006700001D0072A05DB03464146204600F09EF9DB
:100680000BE12078800601D5E06900E00620B8F192
:10069000650F814606D0B8F1660F18D0B8F1670F24
:1006A00070D131E00020B9F1110F009001DB11236E
:1006B00001E009F101030AAA01A90CA8FFF7E2FE73
:1006C000DDE90C70002609F10105834647E00120B1
:1006D0004B4600904FF000470AAA01A90CA8FFF76B
:1006E000D1FEDDE90DB00C995D46002610B909F187
:1006F00001000D18B9EB050003D4C0F1FF3609F174
:100700000105A5EB09002BE0B9F1010F01DA4FF06B
:1007100001090020B9F1110F0090484601DD1123B5
:1007200000E003460AAA01A90CA8FFF7ABFEDDE929
:100730000C704D4600268346207800070AD4AB454E
:1007400000DA5D4601A8012D04DD411911F8011CF4
:10075000302907D04F4502DA17F1040F04DA0120DF
:1007600082460FE06D1EEEE7002F02DCED1B3E44DB
:1007700003E0781CA84200DD7D1CB81B00F1010AD3
:100780004FF000472078000703D4AA4501DB4FF063
:10079000FF3A0021B7F1004F0DF143088DF84310E7
:1007A00024D002202B23002F01DA7F422D230A219F
:1007B000021EA0F1010000DC5FB197FBF1FC97FB8A
:1007C000F1F201FB1C7C17460CF1300C08F801CD4E
:1007D000EEE7A8F1010003702188090501D5452144
:1007E00000E06521A0F1010800F8011C09980FA99B
:1007F000A1EB0807FF1D00B10120411901EBEA70D0
:10080000A1693844081A401EA0612078C00602D4AD
:100810002046AFF30080099828B1D4E90121904720
:10082000206A401C20622078C00622D52046AFF303
:1008300000801EE0002E04DBB34502DD01A8805DD0
:1008400000E03020D4E901219047206A401C20625A
:10085000761CAAF101005FEA000A0AD100F04AF80A
:10086000C0680168405CD4E901219047206A401CBF
:100870002062281EA5F10105DCDC07E0D4E9012196
:1008800018F8010B9047206A401C2062381EA7F11F
:100890000107F3DC2046AFF30080032011B041E6EE
:1008A00001694A1C02610878704700B58FB0CDE934
:1008B00001310021059105497944CDE90310114624
:1008C0006846FFF7DBFC0FB000BD0000E5FFFFFF4F
:1008D0000A6802F8010B0A607047D1E900239A42C6
:1008E00002D2531C0B601070704700000048704724
:1008F000D001002000487047F00100200346406806
:100900008C46002818BF88423CBF03464068F8D395
:1009100018681844884207D00CF1030020F0070043
:10092000001D411A521A0146081D0A60FFF782BDD8
:1009300030B5B0F10A024FEA900E71F100034EEAB1
:10094000817EB0EB0E0061EB91014FEA101E4EEA82
:10095000017E10EB0E0041EB11114FEA102E4EEA12
:10096000016E10EB0E0041EB11214FEA104E4EEAE2
:10097000014E10EB0E0041EB1141401841F1000116
:100980004FEAD00040EA41704FEAD10110EB8005F8
:100990004FEA810444EA907444EB01046D1944EB7E
:1009A0000404521BA3414FF0000348BF0A3200D594
:1009B00030BD401C41F1000130BD00002DE9F04187
:1009C0001F46044603260168072A01F4006004DB81
:1009D00008B116A505E016A503E008B115A500E0CD
:1009E00015A521F010002060A069C01EA0610FB104
:1009F000401EA0612046AFF300804FB1D4E9012131
:100A000038469047206A401C2062C01C206206E0E5
:100A1000206AFAE7D4E9012115F8010B9047761E08
:100A2000F8D22046AFF30080BDE8F0814E414E0081
:100A30006E616E00494E4600696E66002DE9F04712
:100A4000814616468AB0354878440DC88DE80D00B9
:100A500032487844801C03AC0DC884E80D0041F690
:100A60009B300844372190FBF1F290FBF1F5A5F1A2
:100A7000800501FB12041B3C02D56442012000E00A
:100A80000020DFF898A080460027FA44AAF1BE0AA9
:100A90000EE0E0070AD03246684607EB4701012323
:100AA0000AEB810100F097FB8DE8070064107F1CC2
:100AB000002CEED1194F7F44AE3F19E0E80715D066
:100AC00007EB04100DF1180A90E80E008AE80E00FA
:100AD000C068F04201D1981908903246012306A956
:100AE00003A800F078FB03AB83E807006D10641CDB
:100AF000002DE3D14FF0010332466946B8F1000FF3
:100B000003A802D000F052FB01E000F064FBC9E949
:100B10000001C9F808200AB0BDE8F08704300000E1
:100B200010B500F039F8BDE8104000F02FB870475C
:100B30007546FFF7DBFEAE4605006946534620F0DA
:100B40000700854618B020B5FFF73CFBBDE8204004
:100B50004FF000064FF000074FF000084FF0000B79
:100B600021F00701AC46ACE8C009ACE8C009ACE82C
:100B7000C009ACE8C0098D46704710B50446AFF314
:100B800000802046BDE81040FFF708BB002801D0D8
:100B900000F06AB87047000010B5012805D00021A8
:100BA00003A000F067F8012010BD09A1F8E70000DC
:100BB00053494752544D454D3A204F7574206F6646
:100BC0002068656170206D656D6F727900000000AE
:100BD0003A2048656170206D656D6F727920636F92
:100BE00072727570746564004FF0013C50F8042B0C
:100BF00051F8043B9A4221D1A2EB0C03934313EA30
:100C0000CC1317D150F8042B51F8043B9A4215D15C
:100C1000A2EB0C03934313EACC130BD150F8042B33
:100C200051F8043B9A4209D1A2EB0C03934313EA17
:100C3000CC13DBD04FF00000704700BFD01A01BAD0
:100C4000B1FA81F101F0180122FA01F0CB40C1F1B3
:100C50002001DBB2C0B2C01A2CFA01F3D11A9143C1
:100C600011EAC311E6D1704701491820ABBEFEE777
:100C70002600020070B505460C460A2000E06D1CF7
:100C800000F011F835B128780028F8D102E0641C92
:100C900000F009F814B120780028F8D1BDE87040C0
:100CA0000A20AFF3008008B569468DF800000320E4
:100CB000ABBE08BD5FEA400C08BF91F0000F4FEAE1
:100CC0008C234FEAC12243EA51514FEA1C5018BF0E
:100CD00000F5F0404FEA300018BF41F000415FEAF4
:100CE0006C5C00F02980BCF1FF3F08BF40F0804001
:100CF0007047130C06BF12044FF0100C4FF0000C9D
:100D0000130E04BF12020CF1080C130F04BF1201E2
:100D10000CF1040C930F04BF92000CF1020CD30FE2
:100D200004BF52000CF1010C11464FF00002A0F17B
:100D30001F00A0EB0C00704711F0004F08BF704778
:100D400031F000413FF4D5AF0B0C06BF09044FF062
:100D5000100C4FF0000C0B0E04BF09020CF1080C34
:100D60000B0F04BF09010CF1040C8B0F04BF8900A9
:100D70000CF1020CCB0F04BF49000CF1010CCCF1BB
:100D80002003A0EB0C0022FA03F302FA0CF241EA72
:100D9000030100F10100704720F07F4C80EA03005E
:100DA00023F07F47ACEB070303F57C5300F00040D2
:100DB00003F1FF032DE980494FEA154B09B44FEACF
:100DC000144325EA0B4E24EA03480FF2042606EBEF
:100DD000132749083E785FEA320203FB0667C7F52E
:100DE000000707FB06F64FEA54374FEAD64606F1EE
:100DF000020607FB066CCCF1005C4FEA1C472CEAAC
:100E0000074C07FB06F40CFB06F504EB15464FEA0E
:100E1000961634BF00204FF000404FEAD13706FB52
:100E200007FC4FEA1C4C0CFB0BF7D21B03FB0CF727
:100E300061EB07010CFB0EF7B0EB074072EB1742BA
:100E40000CFB08F734BFA2EB0742B2EB074261EBA1
:100E500017414FEA0C444FEA910706FB07FC4FEAA3
:100E60001C4C0CFB0BF7B0EBC74072EB573203FB8B
:100E70000CF734BFA2EBC742B2EBC74261EB57316C
:100E80000CFB0EF7B0EBC70072EB57720CFB08F7C8
:100E900034BFA2EBC702B2EBC70261EB5771039FED
:100EA0004FEA816141EA921104EBCC044FEAD13759
:100EB0004FEA826206FB07FC42EA90124FEA80602A
:100EC0004FEA1C4C0CFB0BF7D21B03FB0CF761EB3E
:100ED00007010CFB0EF7B0EB074072EB17420CFB5F
:100EE00008F734BFA2EB0742B2EB074261EB1741B0
:100EF0004FEA8C554FEA910704EB9C2406FB07FC54
:100F00004FEA1C4C0CFB0BF7B0EBC74072EB5732AF
:100F100003FB0CF734BFA2EBC742B2EBC74261EB55
:100F200057310CFB0EF7B0EBC70072EB57720CFB9E
:100F300008F734BFA2EBC702B2EBC70261EB5771EF
:100F400015EB4C254FEA816141EA92114FEA82622A
:100F50004FEAD13742EA901206FB07FC44F1000445
:100F60004FEA80604FEA1C4C0CFB0BF7D21B03FBD3
:100F70000CF761EB07010CFB0EF7B0EB074072EBCF
:100F800017420CFB08F734BFA2EB0742B2EB074253
:100F900061EB174115EB1C154FEA813141EA924193
:100FA0004FEA823242EA90424FEA80304FEA0C76B2
:100FB00044F1000448EA03434EEA0B484FF0000EA8
:100FC000B2EB080C71EB030724BF624639464EEBC7
:100FD0000E0E4FF0000B0018524149414BEB0B0B2A
:100FE000B2EB080C71EB03077BF1000B24BF6246E8
:100FF00039464EEB0E0E4FF0000B0018524149419E
:101000004BEB0B0BB2EB080C71EB03077BF1000B06
:1010100024BF624639464EEB0E0E51EA020718BF56
:1010200046F0010616EB0E7655F1000254F1000170
:1010300003D5BDE88901BDE80088BDE88901BDE8A8
:101040000048B619524141EB0101A3F10103704779
:1010500080807F7E7D7C7B7A7978777676757473F5
:10106000727171706F6E6E6D6C6C6B6A6A696868B4
:10107000676666656464636362616160605F5F5E4A
:101080005E5D5D5C5C5B5B5A5A59595858575756C0
:101090005655555554545353525252515150505025
:1010A0004F4F4F4E4E4D4D4D4C4C4C4B4B4B4A4A77
:1010B0004A494949484848474747474646464545BB
:1010C00045444444444343434342424242414141F4
:1010D000002B9C4630D477002BD01CB54FEA370745
:1010E00003B44FF010004FF01001BAF1000F06D01A
:1010F000BCF1000FDCBF40F0080040F008014FF0E9
:1011000000000FBCBDE810400BF1010BBBF1010F5B
:1011100008BF5FEA170722BF12F1010211F10101B6
:101120004FF0004143F1000300F0004043EA0000AB
:101130007047F9D35708D0E746EA064613F1400F47
:101140004FEA16461FDD13F1200FDFBF16430A4694
:10115000002120335B42BED0C3F1200746EA064699
:1011600002FA07F74FEA164646EA0706C3F12007D8
:1011700022FA03F201FA07F721FA03F14FF0000314
:1011800042EA0702A7E746EA020646EA06464FEAAF
:10119000164646EA0106BCBF46EA0646360C4FF044
:1011A00000034FF000024FF0000194E72DE9804C5E
:1011B0009A46934670B491E8380007C831EA400C6B
:1011C00048BF34EA430C03D5FFF7E6FDFFF780FF85
:1011D000F0BCBDE8008C2DE9804C9A46934670B473
:1011E00091E8380007C810F0804F08BF13F0804F17
:1011F00003D100F005F8FFF76BFFF0BCBDE8008CF1
:1012000020F07F4780EA030023F07F4C07EB0C03BC
:10121000A3F57C5300F00040A3F1FE0392F0000F11
:1012200000F0B38095F0000F00F077802DE90149C0
:101230004FEA11404FEA144621EA004800FB06FC41
:1012400024EA064708FB06F607FB08F800FB07F749
:1012500018EB06484CEB164C4FEA124B18EB0748BC
:101260004FEA15464CEB174022EA0B4E0BFB06FCEF
:1012700025EA06470EFB06F607FB0EFE0BFB07F7FB
:101280001EEB064E4CEB164C4FF000061EEB074EC5
:101290004CEB174B18EB0B0840F1000018EB0E0B52
:1012A00058EB000840F100008F1A4FF000013CBFDE
:1012B000C943661B14BFB5EB040C00213CBFC943F6
:1012C000F61B4FEA17444EEA8E0E27EA04454FEA12
:1012D0001C4704FB07622CEA074C05FB07F70CFBD5
:1012E00005F604FB0CFC16EB074642EB174216EB27
:1012F0000C4642EB1C421BEB060658EB0202414136
:1013000046EA9E0601D5BDE80189B619524141EB76
:101310000101A3F10103BDE801894FEA14454FEA39
:10132000114724EA054621EA074C05FB07F406FBB2
:1013300007F70CFB06F105FB0CFC11EB074144EB36
:1013400017444FEA124711EB0C4144EB1C4422EACC
:10135000074C05FB07F206FB07F70CFB06F605FB3F
:101360000CFC16EB074642EB174216EB0C4642EB21
:101370001C456A1854F1000148BF7047B619524124
:1013800041EB0101A3F10103704795F0000F37D045
:101390004FEA11424FEA144721EA024624EA074C79
:1013A00002FB07F106FB07F70CFB06F402FB0CFC43
:1013B00014EB074441EB17414FEA154714EB0C447B
:1013C00041EB1C4125EA074C02FB07F506FB07F73A
:1013D0000CFB06F602FB0CFC16EB074645EB17452B
:1013E00016EB0C4645EB1C42121951F1000148BFA7
:1013F0007047B619524141EB0101A3F10103704757
:101400004FEA14454FEA114724EA054621EA074C02
:1014100005FB07F106FB07F70CFB06F24FF0000691
:1014200005FB0CFC12EB074241EB174112EB0C429F
:1014300051EB1C4148BF7047921841EB0101A3F1E9
:101440000103704700BFFEE7704700B5034603E0A5
:101450004FF47A7000F005F8181EA3F10103F7D1DC
:1014600000BD00EBC001C9004FF0E0225161002136
:1014700091610521116100BF4FF0E021096901F47C
:1014800080310029F8D004214FF0E022116170472B
:101490007CB504460D4604A220210548CDE900454F
:1014A000FEF7D2FE02487CBD252E3166000000000A
:1014B000B001002010B5012000F060F8012814D11F
:1014C00001210A4800F0BFF960B90221074800F085
:1014D000BAF938B9064A074B074903C901F096FE25
:1014E000054A03C2012000F043F810BD000C014082
:1014F0009A9999999999B93F5000002010B54FF4E5
:10150000804000F03BF801280BD106480088401CC1
:10151000044908801E20FFF798FF4FF4804000F038
:1015200027F810BD4E00002010B5022000F026F86C
:10153000012814D102210A4800F085F960B901217F
:10154000074800F080F938B9064A074B074903C934
:1015500001F060FD054A03C2022000F009F810BD49
:10156000000C01409A9999999999B93F500000202F
:101570000149086070470000140401400146002042
:101580000022074B1B6803EA0102054B14331B685A
:101590000B4013B10AB1012000E0002070470000A9
:1015A00000040140002123498279002A3AD00A46EA
:1015B000126803689A430B461A600A1D1268036892
:1015C0009A430B1D1A60027911440A6803681A4392
:1015D0000A60184A0832126803689A43154B0833A8
:1015E0001A601A1D126803689A43124B0C331A6072
:1015F0004279102A0ED11A1F126803681A430D4B44
:1016000008331A601A1D126803681A43094B0C3319
:101610001A600DE00749427911440A6803681A43C9
:101620000A6005E0027911440A6803689A430A6077
:10163000704700000004014010B504490CC90021A6
:10164000024C216061601046194610BD5000002018
:101650001FB50121082000F071FF0121084600F0AC
:101660006DFF48208DF80F000320ADF80C008DF8B9
:101670000E0003A91D4800F05BF80021012000F0D6
:1016800037F80121084600F033F8032001900120CB
:101690008DF80A0000208DF808000C208DF8090054
:1016A00001A8FFF77FFF4FF4A06000F007FD0620C0
:1016B0008DF8000001208DF8030000208DF8010056
:1016C0008DF80200684600F0C1FC07208DF800008C
:1016D00001208DF8030000208DF8010001208DF815
:1016E0000200684600F0B2FC1FBD0000000C014083
:1016F00030B500228B071C0F0F2303FA04F20B4BAB
:101700008C1053F824309343084C8D1044F8253046
:1017100023468C1053F824308C07240F00FA04F46D
:101720002343024C8D1044F8253030BD08000140A1
:101730002DE9F04102460025002600200023002468
:10174000002791F803C00CF00F0591F803C00CF0CE
:10175000100CBCF1000F03D091F802C04CEA050553
:1017600091F800C0BCF1000F31D0146800202BE0CC
:101770004FF0010C0CFA00F3B1F800C00CEA0306BC
:101780009E4220D183004FF00F0C0CFA03F7BC43AC
:1017900005FA03FC4CEA040491F803C0BCF1280FDD
:1017A00006D14FF0010C0CFA00FCC2F814C00AE09C
:1017B00091F803C0BCF1480F05D14FF0010C0CFAB1
:1017C00000FCC2F810C0401C0828D1D31460B1F846
:1017D00000C0BCF1FF0F34DD546800202EE000F1A2
:1017E000080C4FF0010808FA0CF3B1F800C00CEA3D
:1017F00003069E4221D183004FF00F0C0CFA03F731
:10180000BC4305FA03FC4CEA040491F803C0BCF1A4
:10181000280F05D100F1080C08FA0CF8C2F8148062
:1018200091F803C0BCF1480F07D100F1080C4FF04C
:10183000010808FA0CF8C2F81080401C0828CED322
:101840005460BDE8F0810246002093680B400BB164
:10185000012000E00020704741617047016170473E
:101860000AB1016100E04161704700BFFEE700007E
:1018700010B576A0784908600020486004200873FD
:10188000097B8800FEF7B0FC73498860734889685B
:101890000860734870498968486072486E49896871
:1018A000886071486C498968C86000206A4908618D
:1018B00008766EA06949086067484860022008738E
:1018C000097B8800FEF790FC644988606A48896853
:1018D00008606A4861498968486000205F4908617A
:1018E000087667A0644908605C4848600020087377
:1018F000886066480861664848610020087665A0EF
:101900005E49086055484860002008738860634855
:101910000861634848610120087662A05049086068
:101920004D48486003200873097B8800FEF75CFC83
:101930004B4988605C48896808605C484849896808
:1019400048605B48464989688860002044490861CE
:101950000120087657A0544908604148486000209B
:10196000087388605448086154484861002008762C
:1019700053A04E4908603A484860002008738860C8
:101980005048086150484861012008764FA04849F6
:101990000860334848600020087388604C4808613C
:1019A0004C484861022008764BA02E4908602A481E
:1019B000486001200873097B8800FEF715FC29495F
:1019C00088604748896808600020264908614861A6
:1019D0000220087640A04249086022484860002062
:1019E00008732049097B8800FEF7FEFB1D498860CB
:1019F0003B488968086000201A4908614861022054
:101A0000087638A018490860134848600120087318
:101A1000097B8800FEF7E8FB134988603348896832
:101A200008600020104908614861032008762DA055
:101A30002E4908600C4848600020087388600861DF
:101A40004861087604482A49086010BD4D61696EF6
:101A5000204D656E75000000600000207C000020B5
:101A6000D0000020400100205C0100204C454420B3
:101A7000436F6E74726F6C0098000020B4000020F9
:101A80004C4544205370656564000000311F000818
:101A9000080000204C45442044697200B91E00082B
:101AA0000A00002050494400EC00002008010020FA
:101AB000240100204B700000A12400081000002029
:101AC0004B69000029240008180000204B64000026
:101AD000B123000820000020496D61676500000007
:101AE00078010020416E676C6500000094010020C1
:101AF0000400002002460748805C084040B10129EC
:101B000004D00448805C8843024B985401207047FD
:101B10000020FCE73400002010B5044634B9102141
:101B20001148FFF790FE08B9012010BD012C06D125
:101B300004210D48FFF787FE08B90120F5E7022CC4
:101B400006D101210848FFF77EFE08B90120ECE725
:101B5000032C07D14FF480410448FFF774FE08B905
:101B60000120E2E70020E0E700080140001001400A
:101B700008B50121042000F0E1FC0121102000F053
:101B8000DDFC48208DF803001520ADF8000003208F
:101B90008DF8020069460648FFF7CAFD4FF4804001
:101BA000ADF8000069460348FFF7C2FD08BD00001C
:101BB000000801400010014010B50020A349087042
:101BC00016E0A348A149097830F8110000280ADD81
:101BD0009F489E49097830F81100401E9C499B4A55
:101BE000127821F8120099480078401C9749087033
:101BF000964800780428E4DB96480078401C954914
:101C0000087008460078142871DB002008708F499E
:101C1000087015E190488D490978415C8F488B4ADE
:101C20001278815489480078FFF776FF8A49874AFD
:101C300012788854084685490978405C01280AD101
:101C4000874882490978405C40F0010084497F4A16
:101C50001278885409E082487C490978405C20F079
:101C600001007F49794A127888547B48774909787E
:101C7000405C01280ED1794874490978405C48B924
:101C8000774872490978405C40F0020174486F4A15
:101C90001278815470486D490978405C78B96F4872
:101CA0006A490978405C012809D16D48674909787B
:101CB000405C40F004016A48644A127881546948E3
:101CC00062490978405C98B9634860490978405C8A
:101CD00001280BD14FF47A705D495C4A127821F8E3
:101CE000120001205F49594A12788854A3E0ACE001
:101CF0005C4856490978405C01282DD15648534923
:101D00000978405C58B900205149504A127821F8AE
:101D10001200022053494D4A127888548BE04C48F7
:101D20004A49097830F81100002814D16420484944
:101D3000464A127821F81200494844490978405C23
:101D400040F020004649414A127888540420454911
:101D50003E4A127888546EE042483C490978405C1B
:101D600002282BD13C4839490978405C01280FD121
:101D70003B4836490978405C40F010003849334A06
:101D80001278885403203749304A1278885452E038
:101D90002F482E49097830F81100F8B930482B49FE
:101DA0000978405C40F008002D49284A1278885490
:101DB00000202C49254A127888543CE029482349C0
:101DC0000978405C03280AD1234820490978405CFF
:101DD00020B9002023491D4A127888542BE021485D
:101DE0001A490978405C042825D11B48174909780D
:101DF000405C28B900201B49144A127888541AE024
:101E000013481249097830F81100A0B9642010492C
:101E10000E4A127821F8120011480C490978405CEA
:101E200040F040000E49094A1278885404200D49B8
:101E3000064A1278885405480078401C0349087007
:101E4000024800780428FFF6E5AE10BD39000020F6
:101E500046000020380000203A0000203E0000200C
:101E6000340000204200002010B54FF48051024899
:101E7000FFF7F2FC10BD0000000C014010B54FF45C
:101E800000510248FFF7E8FC10BD0000000C0140C3
:101E900010B54FF480410248FFF7DEFC10BD000092
:101EA000000C014010B54FF400410248FFF7D4FC8C
:101EB00010BD0000000C014010B508210020FFF704
:101EC00019FE40B100F004F90A48007800F0DEFC89
:101ED000084908700CE008210120FFF70BFE38B11B
:101EE00000F0F6F80348007800F0D0FC01490870D3
:101EF00010BD00000A00002008B50121082000F0F4
:101F00001DFB10208DF803004FF47040ADF8000069
:101F100003208DF8020069460448FFF709FC4FF4DE
:101F200070410248FFF79AFC08BD0000000C014018
:101F300010B54FF470411048FFF790FC08210120C4
:101F4000FFF7D8FD48B100F0C3F801210B48008825
:101F500000F0AAFC094908800DE008210020FFF7E5
:101F6000C9FD40B100F0B4F800210448008800F039
:101F70009BFC0249088010BD000C014008000020B5
:101F800010B52C480088401C2A4908802A4800883F
:101F90008000098891FBF0F200FB121025490880AF
:101FA00026480078D8B9084600882349098890FB5C
:101FB000F1F030B1012807D0022808D003280CD155
:101FC00008E0FFF751FF09E0FFF758FF06E0FFF7D1
:101FD0005FFF03E0FFF766FF00E000BF1BE015486E
:101FE00000881549098890FBF1F030B1012807D02D
:101FF000022808D003280CD108E0FFF753FF09E0BE
:10200000FFF746FF06E0FFF739FF03E0FFF72CFF7D
:1020100000E000BF00BF074800880749098890FB1F
:10202000F1F201FB120020B94FF470410448FFF7B0
:1020300015FC10BD32000020080000200A0000201E
:10204000000C014000BFFEE77047000070B50021A2
:1020500000230F22C47804B3154C246804F4E06410
:10206000C4F5E064210AC1F10403CA40447804FACB
:1020700003F184781440214309010E4C0678A155E0
:10208000047804F01F050124AC4005786D11AD0003
:1020900005F1E025C5F8004109E0047804F01F05CA
:1020A0000124AC40044D0678761145F8264070BDF9
:1020B0000CED00E000E400E080E100E002490143B3
:1020C000024A1160704700000000FA050CED00E0C4
:1020D00070B500240EE00021204600F0EAF800254B
:1020E00004E0002000F054F9681CC5B2802DF8DB34
:1020F000601CC4B2082CEEDB70BD000008B50121E5
:10210000082000F01BFA14208DF8030003208DF83E
:1021100002004FF48070ADF8000069460A48FFF7EE
:1021200007FB4FF40070ADF8000069460648FFF762
:10213000FFFA012211020448FFF792FB012251022B
:102140000148FFF78DFB08BD000C014070B5054646
:10215000002419E080202041284008B1012000E03F
:10216000002002464FF400710E48FFF779FB012270
:1021700011020C48FFF774FB00224FF480710948EC
:10218000FFF76EFB601CC4B2082CE3DB01221102D6
:102190000448FFF765FB00224FF480710148FFF708
:1021A0005FFB70BD000C014010B5012251020A48CE
:1021B000FFF756FB012211020748FFF751FB0022EF
:1021C0004FF400710448FFF74BFB00224FF480717D
:1021D0000148FFF745FB10BD000C014010B500227F
:1021E0004FF400710648FFF73BFB0122110204483F
:1021F000FFF736FB012251020148FFF731FB10BD0A
:10220000000C014070B5002406E0002500E06D1CC4
:10221000B5F57A7FFBD3641CB4F57A7FF5D3FFF76D
:102220006DFFAE2000F0A4F8D52000F0A1F88020CA
:1022300000F09EF8A82000F09BF83F2000F098F8EE
:10224000D32000F095F8002000F092F8402000F034
:102250008FF8A12000F08CF8C82000F089F8DA206F
:1022600000F086F8122000F083F8812000F080F85A
:10227000CF2000F07DF8D92000F07AF8F12000F0AE
:1022800077F8DB2000F074F8302000F071F8A4201B
:1022900000F06EF8A62000F06BF88D2000F068F8D2
:1022A000142000F065F8AF2000F062F8FFF710FF8F
:1022B00070BD70B505460C4645F0B00000F058F80A
:1022C000102141EA141000F053F804F00F0000F060
:1022D0004FF870BD2DE9F04105460E461746721EB7
:1022E000D206110E6A1E5206100EFFF7E2FF0024FE
:1022F00009E0A7F12001134A02EB0111085D00F08B
:1023000047F8601CC4B2082CF3DB721ED206110E13
:102310006A1E012303EB4202D0B2FFF7CAFF00247A
:102320000BE0A7F12001074A02EB011204F10801BA
:10233000505C00F02DF8601CC4B2082CF1DBBDE845
:10234000F0810000E43300082DE9F04107460E4615
:102350001546002407E02A5D3019C1B23846FFF760
:10236000B9FF601CC4B2285D0028F4D1BDE8F0813B
:1023700010B50446FFF718FF7820FFF7E7FE0020AE
:10238000FFF7E4FE2046FFF7E1FEFFF727FF10BD51
:1023900010B50446FFF708FF7820FFF7D7FE40206E
:1023A000FFF7D4FE2046FFF7D1FEFFF717FF10BD61
:1023B00010B508210120FFF79DFB20B94021012025
:1023C000FFF798FB50B1FFF783FE134A134B1449F4
:1023D00003C900F01FFE124A03C213E008210020C7
:1023E000FFF788FB20B940210020FFF783FB48B1AD
:1023F000FFF76EFE084A094B094903C900F006FFC2
:10240000074A03C2074806490CC803C900F0FEFE8C
:10241000034A03C210BD00009A9999999999B93F4E
:10242000200000202800002010B508210120FFF71F
:1024300061FB20B940210120FFF75CFB50B1FFF7A1
:1024400047FE134A134B144903C900F0E3FD124A37
:1024500003C213E008210020FFF74CFB20B9402104
:102460000020FFF747FB48B1FFF732FE084A094B4F
:10247000094903C900F0CAFE074A03C207480649D2
:102480000CC803C900F0C2FE034A03C210BD00001D
:102490009A9999999999B93F18000020280000202D
:1024A00010B508210120FFF725FB20B940210120AC
:1024B000FFF720FB50B1FFF70BFE134A134B1449F3
:1024C00003C900F0A7FD124A03C213E0082100204F
:1024D000FFF710FB20B940210020FFF70BFB48B1AC
:1024E000FFF7F6FD084A094B094903C900F08EFEC3
:1024F000074A03C2074806490CC803C900F086FE14
:10250000034A03C210BD00009A9999999999B93F5D
:1025100010000020280000207047000029B1064A62
:10252000D2690243044BDA6104E0034AD269824370
:10253000014BDA61704700000010024029B1064AE1
:1025400092690243044B9A6104E0034A9269824310
:10255000014B9A617047000000100240704710B5AF
:1025600000F002F810BD00000CB5002001900090B2
:102570003348006840F480303149086000BF30487B
:10258000006800F4003000900198401C0190009811
:1025900018B90198B0F5A06FF1D12948006800F48E
:1025A000003010B10120009001E000200090009860
:1025B000012843D12348006840F0100021490860F9
:1025C0000846006820F0030008600846006840F0F4
:1025D000020008601A484068194948600846406887
:1025E00048600846406840F480604860084640689B
:1025F00020F47C1048600846406840F4E8104860C9
:102600000846006840F08070086000BF0C48006811
:1026100000F000700028F9D00948406820F003005D
:10262000074948600846406840F00200486000BF23
:102630000348406800F00C000828F9D10CBD0000E8
:1026400000100240002002407047000010B51348FF
:10265000006840F0010011490860084640681049D0
:1026600008400E494860084600680E4908400B497A
:1026700008600846006820F480200860084640682A
:1026800020F4FE0048604FF41F008860FFF767FFEA
:102690004FF000600449086010BD000000100240C7
:1026A0000000FFF8FFFFF6FE08ED00E010B5FFF7B1
:1026B00083FAFFF765FC0121880700F019F801286B
:1026C00003D10121800700F004F810BDCA43028243
:1026D0007047CA430282704721B1028842F001026A
:1026E000028004E002884FF6FE731A4002807047B1
:1026F00030B50246002000230024158A05EA0103B4
:10270000958905EA010413B10CB1012000E0002015
:1027100030BD1AB183890B43838102E083898B43E7
:102720008381704701894FF6F8721140018170472B
:10273000002202881D4B98420ED01D4B98420BD0B0
:10274000B0F1804F08D01B4B984205D01A4B9842ED
:1027500002D01A4B984204D14FF68F731A404B881F
:102760001A43174B984207D0164B984204D04FF6A5
:10277000FF431A40CB881A4302808B8883850B88DD
:1027800003850A4B98420BD0094B984208D00E4B58
:10279000984205D00D4B984202D00D4B984201D182
:1027A0000B7A03860123838270470000002C0140CE
:1027B000003401400004004000080040000C0040CC
:1027C000001000400014004000400140004401405F
:1027D000004801401FB501210846FFF79FFE4FF05A
:1027E0008040FFF79FFF0020ADF80A00ADF806001B
:1027F0006320ADF8080040F2CF20ADF804000020BF
:102800008DF80C0001A94FF08040FFF791FF0121E6
:102810008807FFF75BFF012211469007FFF779FF5A
:102820004FF4A060FFF74AFC1C208DF80000012047
:102830008DF8030002208DF8010001208DF80200C0
:102840006846FFF703FC01218807FFF745FF1FBD1E
:1028500000BFFEE7490050EAC12018BF04204A0D1E
:1028600018BF40F0010040F2FF72B2EB515F08BFA9
:1028700040F00200012808BF0520704730380A28C0
:1028800001D20120704700207047000010B50446B7
:102890004FF470410348FEF7E1FF0CB9012010BD71
:1028A0000020FCE7000C0140024601290CD1C82A97
:1028B00002D14FF4FA707047B2F5FA7F02D14FF4AB
:1028C0007A70F8E7C820F6E7B2F57A7F01D1C82020
:1028D000F1E7B2F5FA7F02D14FF47A70EBE74FF4EB
:1028E000FA70E8E710B5FEF7A7FE4C4A03C20024D1
:1028F0000BE04B49896851F824100A68611CC8B282
:102900000221FFF721FD601CC4B24548007BA042B4
:10291000EFDC002413E0434890F90000844206D124
:10292000611CC8B240A20121FFF70EFD05E0611C49
:10293000C8B23EA20121FFF707FD601CC4B23848AF
:10294000007BA042E7DC08210120FFF7D3F820B983
:1029500040210120FFF7CEF8C0B135480068007B68
:10296000002813DDFFF7B4FB31480068007B401EF0
:102970002C4991F90010884201D1002003E0294838
:1029800090F90000401C40B2264908700821002040
:10299000FFF7B0F820B940210020FFF7ABF8A0B155
:1029A00023480068007B00280FDDFFF791FB1D48DE
:1029B000007818B91A48007B401E03E0194890F9C6
:1029C0000000401E40B21749087008210220FFF79E
:1029D00091F870B1FFF77CFB1548006880681149D9
:1029E00091F9001050F821001149086000200D49AC
:1029F000087008210320FFF77DF868B10C480068D3
:102A0000406848B1FFF764FB09480068406808491E
:102A1000086000200349087010BD00002800002055
:102A200060000020000000203E00000020000000A8
:102A3000040000202DE9F041FEF7FEFDFE4A03C22E
:102A4000FE4800680069002842D108210120FFF7F4
:102A500051F820B940210120FFF74CF8C0B1F748E8
:102A60000068007B002813DDF4480068007B401EEE
:102A7000F34991F90010884201D1002003E0F048A9
:102A800090F90000401C40B2ED490870FFF720FBB0
:102A900008210020FFF72EF820B908210020FFF7B9
:102AA00029F8A8B1E5480068007B002810DDE4485B
:102AB000007820B9E1480068007B401E03E0E04850
:102AC00090F90000401E40B2DD490870FFF700FB9E
:102AD00008210220FFF70EF860B3FFF7F9FAD74894
:102AE0000068007B78B9D5480068006958B1D348C0
:102AF0000068007E40B2D2490870D0480068406843
:102B0000CE49086016E0CD4800688068CC4991F94C
:102B1000001050F82100C949086008460068806824
:102B2000C74991F9001050F82100006910B9002040
:102B3000C349087008210320FEF7DCFF80B1BF48BD
:102B40000068406860B1FFF7C3FABC480068007EC7
:102B500040B2BB490870B94800684068B74908608E
:102B6000B6480068006940B1B44800684068012177
:102B700002680846FFF7E8FB06E0B048006801215C
:102B800002680846FFF7E0FBAE480088C82809D075
:102B9000B0F5FA7F04D0B0F57A7F05D1AAA505E09B
:102BA000AAA503E0AAA501E0AAA500BF00BFAA4804
:102BB000007808B9A5A000E0A3A0064600244BE0D9
:102BC0009F4991F900108C4201D1A4A100E0A4A179
:102BD0000A46A11CC8B20121FFF7B6FB9749096854
:102BE000896851F824100A68A11CC8B20221FFF7B5
:102BF000ABFB9C488068406890490968884218D1BE
:102C0000002712E09848806850F827004069D0E912
:102C100000211046FEF73CFC8046B91CC8B2424673
:102C20000D21FFF791FB781CC7B28F48007BB8429B
:102C3000E8DC8C488068006880490968884209D1CE
:102C40002A460E210220FFF77FFB32460E21032089
:102C5000FFF77AFB601CC4B278480068007BA04292
:102C6000AEDC76480068006920B180A20E21012008
:102C7000FFF76AFB7148006800697D49884230D1DE
:102C8000FFF756F92A460E210220FFF75DFB324678
:102C90000E210320FFF758FB00241BE0684991F93F
:102CA00000108C4201D16DA100E06DA10A46A11C6B
:102CB000C8B20121FFF748FB604909684968896883
:102CC00051F824100A68A11CC8B20321FFF73CFB8D
:102CD000601CC4B2594800684068007BA042DDDC3B
:102CE00046E15648006800696249884230D1FFF7E2
:102CF000E3F82A460E210220FFF726FB32460E217A
:102D00000320FFF721FB00241BE04D4991F900103F
:102D10008C4201D151A100E051A10A46A11CC8B2C8
:102D20000121FFF711FB454909684968896851F895
:102D300024100A68A11CC8B20321FFF705FB601C20
:102D4000C4B23E4800684068007BA042DDDC0FE171
:102D50003A48006800694849884244D1FFF7A0FB1F
:102D6000464903C9FEF794FB044622460D21022082
:102D7000FFF7EAFA424903C9FEF78AFB04462246F6
:102D80000D210320FFF7E0FA3E4903C9FEF780FB5F
:102D9000044622460D210420FFF7D6FA00241BE04A
:102DA000274991F900108C4201D12CA100E02CA1FF
:102DB0000A46A11CC8B20121FFF7C6FA1F490968DB
:102DC0004968896851F824100A68A11CC8B2032117
:102DD000FFF7BAFA601CC4B2184800684068007B6C
:102DE000A042DDDCC4E0154800680069264988423D
:102DF00072D1FFF719FB214903C9FEF749FB0446CD
:102E000022460D210220FFF79FFA1D4903C9FEF754
:102E10003FFB044622460D210320FFF795FA19498E
:102E200003C9FEF735FB044622460D210420FFF7B7
:102E30008BFA002448E00000280000200400002055
:102E400000000020080000203100000030000000D9
:102E500032000000554E4B000A0000203E000000EA
:102E60002000000060000020D0000020450000008D
:102E7000311F0008B91E0008A1240008100000201E
:102E8000180000202000002029240008394991F969
:102E900000108C4202D1AFF23C0101E0AFF24001E0
:102EA0000A46A11CC8B20121FFF74EFA324909684F
:102EB0004968896851F824100A68A11CC8B2032126
:102EC000FFF742FA601CC4B22B4800684068007BE0
:102ED000A042DBDC4CE0FFE7274800680069274997
:102EE000884245D1FFF764FA254903C9FEF7D0FAB5
:102EF000044622460D210220FFF726FA214903C984
:102F0000FEF7C6FA044622460D210320FFF71CFAFD
:102F10001D4903C9FEF7BCFA044622460D210420D0
:102F2000FFF712FA00241DE0124991F900108C42BB
:102F300002D1AFF2D80101E0AFF2DC010A46A11CD8
:102F4000C8B20121FFF700FA0B490968496889688E
:102F500051F824100A68A11CC8B20321FFF7F4F944
:102F6000601CC4B2044800684068007BA042DBDCFF
:102F7000BDE8F0810000002004000020B12300081B
:102F8000100000201800002020000020FFF722FC85
:102F9000FFF738F9FEF75CFB0FA201210846FFF7A7
:102FA000D3F94FF47A70FEF750FAFFF791F8FEF775
:102FB000DFFDFEF7A1FFFEF75BFC04460948046055
:102FC00008E008480068A04202D1FFF78BFC01E04E
:102FD000FFF730FDF5E700005374617274696E67A6
:102FE0002E2E2E000400002010B500290AD00878EB
:102FF000002807D005487844FDF7F6FD002801D0E9
:10300000002010BD0248784410BD0000920A000064
:103010008A0A000010B591EA030F48BF83F000430D
:1030200000F1FC80841A71EB030C05D2121943EBFA
:103030000C03001B61EB0C01DFF824E14FEA115493
:10304000A4EB135C1EEA430F18BF9EEA445F73D0E3
:1030500023EA0E03DCF1200E21EA045143F480132D
:1030600032D322FA0CFE10EB0E0023FA0CFE41EBD9
:103070000E01CCF1200E03FA0EFE10EB0E0051F102
:103080000001B1F5801FCCF1200E32D201EB0451CA
:1030900012FA0EF2BDE8104058BF7047401C38BF0E
:1030A0005FEA420218BF7047002814BF20F00100F9
:1030B00041F100014FEA410313F5001F38BF70478B
:1030C000A1F1C04100F09CB8012A43EB0302ACF12E
:1030D000200CDCF11F0E32BF4FF0000E23FA0CF370
:1030E00010EB030041EB0451B4EB115FD0D0A1EB26
:1030F000045101F5801149085FEA300001EB0451E9
:103100000ED350F1000038BF12FA0EFE08D1BDE810
:103110001040C9E7401C38BF5FEA4202CAD1C3E78A
:10312000BDE810404FEA410313F5001F38BF704758
:10313000A1F1C04100F064B89EEA445F08D011EAF2
:103140005E0FBDE8104004BF01F000410020704751
:10315000BDE8104070B500F005F800BF64FBBE3E4E
:103160000000E0FF0EF1020E2EF0030E5EF8046B7D
:10317000364205D4012A43EB030515F5001F12D88A
:10318000012841EB010C1CF5001F0CD80ED14FEAB1
:10319000D17C15F5001F0CEB4C0C0CF1020C08BF98
:1031A0004CEBD37C04E04FF0080C01E04FEAD37CF9
:1031B0000CEB4C0526FA05F606F00706B6F1040CF2
:1031C00006D20EEB860CBDE870404CF0010C604757
:1031D000DFE80CF0090B02024FF000414FF0000055
:1031E000A1F5002170BD19461046012851EB0104DC
:1031F00018BFD4F5001484BF002001F0004170BD59
:103200000808A0F500114FEA3101704710B591EAA6
:10321000030F48BF83F000433FF504AF841A71EBFE
:10322000030C07D212198CF0004C43EB0C03001B6B
:1032300061EB0C01DFF8A4E14FEA1154A4EB135C3D
:103240001EEA430F18BF9EEA445F00F0B08023EAF5
:103250006E03524221EA0451C3EB6E0338BF5B1E7A
:10326000DCF1200E25D322FA0CFE10EB0E0043FAFF
:103270000CFE41EB0E01CCF1200E03FA0EFE10EB1A
:103280000E0051F10001CCF1200E29D412FA0EF2F9
:1032900001EB0451BDE8104058BF7047401C1CBFF3
:1032A000B2F1004F704700280CBF491C20F001000C
:1032B000704712EB020E43EB030218BF4FF0010EF2
:1032C0004EEA4202ACF1200CDCF11E0E54D943FA56
:1032D0000CFE10EB0E0051F1FF31CCF11E0ED5D5D6
:1032E0000EF1010E12FA0EFE404141EB010101EB1D
:1032F000445C5FEA5C5C10D910EBDE7001EB0451BA
:1033000038BFBEF1004FBDE8104018BF704700281D
:103310000CBF491C20F00100704730D24FEAD42C7A
:1033200011F5001124F400641BD0B1FA81F20B3ABC
:10333000A41AA41ED2F12003914030FA03F31943DA
:10334000904001EBCC71002C01EB0451BDE8104022
:10335000A8BF704701F1C0414FF0000001F00041EB
:103360007047B0FA80F310FA03F100D110BDE41AEF
:10337000173C4805C90AE4E701EB045110BD4910A8
:1033800001EB0451BDE810404FEA300002E04FF07D
:10339000000170474A0008BF0042F8D0B2F5001F94
:1033A00028BF704701F000414FF0000070479EEACF
:1033B000445F07D011EA5E0FBDE8104004BF002152
:1033C00000207047BDE8104070B5FFF7CBFE00BF8E
:1033D00040DFF63E83F00041104670470000E0FFFA
:1033E000FDF728B900000000000000000000000008
:1033F00000000000000000F80000000000000033A2
:103400003000000000100C06100C06000000000048
:103410000000000040C07840C0784000043F040431
:103420003F040400007088FC08300000001820FFF2
:10343000211E0000F008F000E018000000211C032D
:103440001E211E0000F00888700000001E212324A9
:103450001927211010160E000000000000000000C7
:1034600000000000000000E0180402000000000757
:103470001820400000020418E0000000004020185E
:1034800007000000404080F0804040000202010F31
:1034900001020200000000F0000000000101011F15
:1034A00001010100000000000000000080B0700079
:1034B0000000000000000000000000000001010109
:1034C0000101010100000000000000000030300098
:1034D0000000000000000000806018040060180672
:1034E0000100000000E010080810E000000F1020AC
:1034F00020100F00001010F8000000000020203FF6
:10350000202000000070080808887000003028247F
:103510002221300000300888884830000018202020
:1035200020110E000000C02010F800000007042445
:10353000243F240000F8088888080800001921208A
:1035400020110E0000E0108888180000000F1120E4
:1035500020110E0000380808C83808000000003F9D
:10356000000000000070880808887000001C2221FC
:1035700021221C0000E010080810E00000003122A9
:1035800022110F00000000C0C00000000000003049
:10359000300000000000008000000000000080609B
:1035A000000000000000804020100800000102041C
:1035B0000810200040404040404040000404040403
:1035C00004040400000810204080000000201008BF
:1035D00004020100007048080808F00000000030F4
:1035E00036010000C030C828E810E0000718272482
:1035F00023140B000000C038E0000000203C230230
:103600000227382008F8888888700000203F202092
:1036100020110E00C03008080808380007182020C4
:103620002010080008F808080810E000203F2020BB
:1036300020100F0008F88888E8081000203F20209C
:103640002320180008F88888E8081000203F200090
:1036500003000000C03008080838000007182020C8
:10366000221E020008F808000008F808203F210187
:1036700001213F20000808F8080800000020203F32
:103680002020000000000808F8080800C0808080A2
:103690007F00000008F888C028180800203F20019B
:1036A0002638200008F8080000000000203F2020F5
:1036B0002020300008F8F800F8F80800203F003F0C
:1036C000003F200008F830C00008F808203F200024
:1036D00007183F00E01008080810E0000F10202035
:1036E00020100F0008F808080808F000203F21010A
:1036F00001010000E01008080810E0000F18242461
:1037000038504F0008F8888888887000203F2000D3
:10371000030C302000708808080838000038202189
:1037200021221C00180808F8080818000000203F93
:103730002000000008F808000008F808001F2020FA
:1037400020201F000878880000C8380800000738CB
:103750000E010000F80800F80008F800033C07001C
:10376000073C0300081868808068180820302C0384
:10377000032C30200838C800C83808000000203F5B
:103780002000000010080808C8380800203826214A
:1037900020201800000000FE020202000000007F4E
:1037A00040404000000C30C000000000000000015C
:1037B0000638C00000020202FE0000000040404047
:1037C0007F0000000000040202020400000000006C
:1037D00000000000000000000000000080808080E9
:1037E00080808080000202040000000000000000D1
:1037F000000000000000808080800000001924226A
:1038000022223F2008F8008080000000003F1120A5
:1038100020110E000000008080800000000E1120AA
:1038200020201100000000808088F800000E112088
:1038300020103F200000808080800000001F222296
:1038400022221300008080F0888888180020203F02
:10385000202000000000808080808000006B949415
:103860009493600008F8008080800000203F2100D1
:1038700000203F2000809898000000000020203F9A
:1038800020200000000000809898000000C0808088
:10389000807F000008F8000080808000203F240224
:1038A0002D302000000808F8000000000020203F14
:1038B000202000008080808080808000203F2000C9
:1038C0003F20003F8080008080800000203F21005A
:1038D00000203F200000808080800000001F20200A
:1038E00020201F00808000808000000080FFA12039
:1038F00020110E000000008080808000000E11204A
:1039000020A0FF80808080008080800020203F21D8
:10391000200001000000808080808000003324248B
:1039200024241900008080E0808000000000001F37
:10393000202000008080000000808000001F2020E8
:1039400020103F20808080000080808000010E30A9
:103950000806010080800080008080800F300C030A
:103960000C300F0000808000808080000020312E0D
:103970000E312000808080000080808080818E70E9
:103980001806010000808080808080000021302C9B
:103990002221300000000000807C020200000000B4
:1039A000003F404000000000FF0000000000000059
:1039B000FF0000000002027C800000000040403F49
:1039C00000000000000601010202040400000000E3
:1039D0000000000002400000000000A00000000005
:1039E00005400000000000C8000000000C4000007E
:1039F0000000409C00000000194000000020BCBEF8
:103A00000000000034400000BFC91B8E000000040D
:103A1000B5400000504BCFD06607E2CF0100000058
:103A20006C4100003E8251AADFEEA7340100000085
:103A3000D9420000DCB5A0E23A301F97FFFFFFFF3C
:103A4000B4450000FD25A0C8E9A3C14FFFFFFFFF5B
:103A5000FF3F00000000008000000000FF3F00006A
:103A60000000008000000000A43A000800000020D0
:103A70006000000028010008043B000860000020EE
:103A8000D0070000440100081C00000043000000B3
:103A9000F8FFFFFF0C0000000E0000000F00000008
:103AA0002E0000000000000000000000F4010000F3
:103AB0000000000000000000000000000000000006
:103AC00000000000000000000000000000000000F6
:103AD00000000000000000000000000000000000E6
:103AE00000000000000000000000000000000000D6
:103AF00000000000000000000000000000000000C6
:043B000000000000C1
:04000005080000ED02
:00000001FF
